:100000000C945D000C9485000C9485000C94850084
:100010000C9485000C9485000C9485000C9485004C
:100020000C9485000C9485000C9485000C9485003C
:100030000C9485000C9485000C9485000C9485002C
:100040000C9432010C9485000C9485000C9485006E
:100050000C9485000C9485000C9485000C9485000C
:100060000C9485000C94850000000008000201003B
:100070000003040700000000000000000000000072
:10008000250028002B0000000000240027002A0083
:10009000040404040404040402020202020203032E
:1000A0000303030301020408102040800102040836
:1000B0001020010204081020DB1711241FBECFEF0F
:1000C000D8E0DEBFCDBF12E0A0E0B1E0EEE5F0E3A6
:1000D00002C005900D92A030B107D9F722E0A0E050
:1000E000B2E001C01D92AA31B207E1F710E0CDE500
:1000F000D0E004C02197FE010E942718CC35D1071B
:10010000C9F70E9482020C942D180C9400003FB78E
:10011000F8948091050290910602A0910702B09197
:10012000080226B5A89B05C02F3F19F00196A11D16
:10013000B11D3FBFBA2FA92F982F8827820F911D7D
:10014000A11DB11DBC01CD0142E0660F771F881FC4
:10015000991F4A95D1F7089590E0FC01E859FF4FA7
:100160003491FC01EC55FF4F2491FC01E057FF4F07
:10017000E491EE2309F43BC0332339F1333091F09D
:1001800038F43130A9F0323001F584B58F7D12C0DA
:10019000373091F03830A1F03430B9F480918000DC
:1001A0008F7D03C0809180008F77809380000DC089
:1001B00084B58F7784BD09C08091B0008F7703C06C
:1001C0008091B0008F7D8093B000F0E0EE0FFF1FB4
:1001D000E458FF4FA591B4918FB7F894EC91611159
:1001E00003C020952E2301C02E2B2C938FBF089582
:1001F0008F929F92AF92BF92CF92DF92EF92FF9237
:100200006B017C010E9487004B015C01C114D10489
:10021000E104F104F1F00E948700DC01CB018819B0
:100220009909AA09BB09883E9340A105B10570F35D
:1002300021E0C21AD108E108F10888EE880E83E0B7
:10024000981EA11CB11CC114D104E104F10419F7DA
:10025000DDCFFF90EF90DF90CF90BF90AF909F9059
:100260008F9008951F920F920FB60F9211242F9323
:100270003F938F939F93AF93BF938091010290918F
:100280000202A0910302B09104023091000223E027
:10029000230F2D3720F40196A11DB11D05C026E8BE
:1002A000230F0296A11DB11D20930002809301022D
:1002B00090930202A0930302B0930402809105027E
:1002C00090910602A0910702B09108020196A11D2B
:1002D000B11D8093050290930602A0930702B0938C
:1002E0000802BF91AF919F918F913F912F910F90F5
:1002F0000FBE0F901F901895EF92FF921F93CF9310
:10030000DF931F92CDB7DEB77C01162F60E0FC01B2
:10031000808149830E94AC0060E0F70181810E94E6
:10032000AC001BB961E0F70180810E94AC0060E085
:10033000F70180810E94AC0061E0F70181810E9499
:10034000AC0049814BB961E0F70180810F90DF91EA
:10035000CF911F91FF90EF900C94AC00CF93DF935F
:10036000EC0140E060E00E947C0140E061E0CE01F1
:100370000E947C0140E062E0CE010E947C0140E0EE
:1003800063E0CE010E947C0140E064E0CE010E9467
:100390007C0140E065E0CE010E947C0140E066E027
:1003A000CE010E947C0140E067E0CE010E947C010A
:1003B00040E068E0CE010E947C0140E069E0CE01AF
:1003C0000E947C0140E06AE0CE010E947C0140E096
:1003D0006BE0CE010E947C0140E06CE0CE010E9407
:1003E0007C0140E06DE0CE010E947C011C821B82FA
:1003F0001B861E821D821C8618861F821D868FE327
:100400008A871F861E86188ADF91CF9108950F93E1
:100410001F93CF93DF938C01EB010297E0F489E007
:100420008093190249E06DE089E092E00E947C012E
:1004300084ED90E3909318028093170244ED6BE0F3
:1004400089E092E00E947C01409118026CE089E012
:1004500092E00E947C01CC0FDD1FC050DF4F28814D
:10046000398140E050E068E478EE81E090E00E945D
:10047000E617B901C801DF91CF911F910F910C943C
:1004800041020F931F93CF939C01AB015F70220F2A
:10049000331FF901E75FFD4F8F010D5F1F4F54833D
:1004A0004383C82FCC0F6C2F89E092E00E947C011F
:1004B000F801418161E06C0F89E092E0CF911F91DA
:1004C0000F910C947C0190E0FC01EC55FF4F2491BE
:1004D000FC01E057FF4F8491882399F090E0880F4A
:1004E000991FFC01EA57FF4FA591B491FC01E45814
:1004F000FF4F859194918FB7F894EC91E22BEC9398
:100500008FBF0895789484B5826084BD84B581607E
:1005100084BD85B5826085BD85B5816085BD8091CE
:100520006E00816080936E00109281008091810046
:10053000826080938100809181008160809381003E
:10054000809180008160809380008091B100846000
:100550008093B1008091B00081608093B000809161
:100560007A00846080937A0080917A008260809320
:100570007A0080917A00816080937A0080917A007D
:10058000806880937A001092C1008FEF8AB988E06A
:100590000E94630289E00E9463028AE00E94630273
:1005A00089E092E00E94AE0161E0809109020E9420
:1005B000AC0060E080910A020E94AC0060E0809193
:1005C0000B020E94AC006AE070E080E090E00E94C4
:1005D000F80061E080910B020E94AC0088E38093F8
:1005E000130248E367E089E092E00E947C01CAE0E0
:1005F000C09314024AE068E089E092E00E947C0126
:1006000060E070E080E090E00E944102C09315023B
:100610004AE069E089E092E00E947C0160E070E0DD
:1006200081E090E00E9441028FE0809316024FE04B
:100630006AE089E092E00E947C0160E070E082E084
:1006400090E00E944102409114024F70406140933B
:10065000140268E089E092E00E947C01409115025A
:100660004F7040614093150269E089E092E00E947A
:100670007C01409116024F70409316026AE089E0B7
:1006800092E00E947C01C0E0D0E068E470E080E08D
:1006900090E00E9407026EE370E081E090E00E942B
:1006A000070260E370E082E090E00E9407026BE5E1
:1006B00070E080E090E00E94F80060E070E082E08E
:1006C00090E00E94070265E270E080E090E00E9406
:1006D000F8006FE270E082E090E00E94070260E7BD
:1006E00070E080E090E00E94F80060E070E082E05E
:1006F00090E00E94070265E270E080E090E00E94D6
:10070000F8006DE270E082E090E00E94070260E78E
:1007100070E080E090E00E94F80060E070E082E02D
:1007200090E00E94070265E270E080E090E00E94A5
:10073000F80060E070E080E090E00E94070263E46F
:1007400070E080E090E00E94070260E070E081E0ED
:1007500090E00E94070260E470E081E090E00E9477
:1007600007026BE270E082E090E00E94070260E71F
:1007700070E080E090E00E94F80060E070E082E0CD
:1007800090E00E94070265E270E080E090E00E9445
:10079000F80060E370E082E090E00E94070264E607
:1007A00070E080E090E00E94F80060E070E082E09D
:1007B00090E00E94070262E370E080E090E00E9417
:1007C000F8006FE270E082E090E00E94070264E6C9
:1007D00070E080E090E00E94F80060E070E082E06D
:1007E00090E00E94070262E370E080E090E00E94E7
:1007F000F80060E070E080E090E00E94070268E4AA
:1008000070E080E090E00E9407026DE270E082E01C
:1008100090E00E94070264E670E080E090E00E94B1
:10082000F80060E070E082E090E00E94070262E37E
:1008300070E080E090E00E94F8006BE270E082E0FF
:1008400090E00E94070264E670E080E090E00E9481
:10085000F80060E070E082E090E00E94070262E34E
:1008600070E080E090E00E94F80060E070E080E0DE
:1008700090E00E94070266E470E080E090E00E9451
:10088000070260E070E081E090E00E9407026CE304
:1008900070E081E090E00E9407026EE270E082E08A
:1008A00090E00E94070264E670E080E090E00E9421
:1008B000F80060E070E082E090E00E94070262E3EE
:1008C00070E080E090E00E94F8006DE270E082E06D
:1008D00090E00E94070264E670E080E090E00E94F1
:1008E000F80060E070E082E090E00E94070261E3BF
:1008F00070E080E090E00E94F8006BE270E082E03F
:1009000090E00E94070264E670E080E090E00E94C0
:10091000F80060E070E082E090E00E94070262E38D
:1009200070E080E090E00E94F80060E070E080E01D
:1009300090E00E94070263E470E080E090E00E9493
:10094000070260E070E081E090E00E9407026EE341
:1009500070E081E090E00E94070269E270E082E0CE
:1009600090E00E94070264E670E080E090E00E9460
:10097000F80060E070E082E090E00E94070262E32D
:1009800070E080E090E00E94F8006EE270E082E0AB
:1009900090E00E94070264E670E080E090E00E9430
:1009A000F80060E070E082E090E00E94070261E3FE
:1009B00070E080E090E00E94F8006DE270E082E07C
:1009C00090E00E94070264E670E080E090E00E9400
:1009D000F80060E070E082E090E00E94070262E3CD
:1009E00070E080E090E00E94F80060E070E080E05D
:1009F00090E00E94070261E470E080E090E00E94D5
:100A000007026BE270E082E090E00E94070264E679
:100A100070E080E090E00E94F80060E070E082E02A
:100A200090E00E94070262E370E080E090E00E94A4
:100A3000F80069E270E082E090E00E94070264E65C
:100A400070E080E090E00E94F80060E070E082E0FA
:100A500090E00E9407026EE170E080E090E00E946A
:100A6000F80060E070E081E090E00E94070261E140
:100A700070E080E090E00E94F80060E070E080E0CC
:100A800090E00E94070268E470E080E090E00E943D
:100A900007026EE370E081E090E00E94070260E3ED
:100AA00070E082E090E00E94070264E670E080E07F
:100AB00090E00E94F80060E070E082E090E00E9428
:100AC000070262E370E080E090E00E94F8006FE2CD
:100AD00070E082E090E00E94070264E670E080E04F
:100AE00090E00E94F80060E070E082E090E00E94F8
:100AF000070262E370E080E090E00E94F8006DE29F
:100B000070E082E090E00E94070264E670E080E01E
:100B100090E00E94F80060E070E082E090E00E94C7
:100B2000070261E370E080E090E00E94F80060E07E
:100B300070E080E090E00E94070263E470E080E0F3
:100B400090E00E94070260E070E081E090E00E9487
:100B5000070260E470E081E090E00E9407026BE22F
:100B600070E082E090E00E94070264E670E080E0BE
:100B700090E00E94F80060E070E082E090E00E9467
:100B8000070262E370E080E090E00E94F80060E31A
:100B900070E082E090E00E94070264E670E080E08E
:100BA00090E00E94F80060E070E082E090E00E9437
:100BB000070262E370E080E090E00E94F8006FE2DC
:100BC00070E082E090E00E94070264E670E080E05E
:100BD00090E00E94F80060E070E082E090E00E9407
:100BE000070261E370E080E090E00E94F80060E0BE
:100BF00070E080E090E00E94070260E470E080E036
:100C000090E00E9407026DE270E082E090E00E94B6
:100C100007026BE470E080E090E00E94F80060E082
:100C200070E080E090E00E94070263E470E080E002
:100C300090E00E94070268E170E080E090E00E948E
:100C4000F80060E070E082E090E00E94070262E35A
:100C500070E080E090E00E94F80060E070E080E0EA
:100C600090E00E94070268E470E080E090E00E945B
:100C700007026BE270E082E090E00E9407026AE403
:100C800070E080E090E00E94F80060E070E080E0BA
:100C900090E00E9407026CE470E080E090E00E9427
:100CA000070269E170E080E090E00E94F80060E0F7
:100CB00070E082E090E00E94070262E370E080E072
:100CC00090E00E94F80060E070E080E090E00E9418
:100CD00007026DE470E080E090E00E94070260E0AF
:100CE00070E081E090E00E94070263E470E081E040
:100CF00090E00E94070269E270E082E090E00E94CA
:100D0000070264E670E080E090E00E94F80060E096
:100D100070E082E090E00E94070261E370E080E012
:100D200090E00E94F80068E270E082E090E00E94AB
:100D3000070264E670E080E090E00E94F80060E066
:100D400070E082E090E00E94070262E370E080E0E1
:100D500090E00E94F80060E070E081E090E00E9486
:100D6000070268E470E081E090E00E94070266E21A
:100D700070E082E090E00E94070264E670E080E0AC
:100D800090E00E94F80060E070E082E090E00E9455
:100D9000070262E370E080E090E00E94F80060E00B
:100DA00070E081E090E00E94070265E470E081E07D
:100DB00090E00E94070264E270E082E090E00E940E
:100DC000070264E670E080E090E00E94F80060E0D6
:100DD00070E082E090E00E94070262E370E080E051
:100DE00090E00E94F80069E270E082E090E00E94EA
:100DF000070264E670E080E090E00E94F80060E0A6
:100E000070E082E090E00E94070262E370E080E020
:100E100090E00E94F80060E070E080E090E00E94C6
:100E200007026CE470E080E090E00E94070268E254
:100E300070E082E090E00E94070264E670E080E0EB
:100E400090E00E94F80060E070E082E090E00E9494
:100E5000070262E370E080E090E00E94F80060E04A
:100E600070E081E090E00E94070261E470E081E0C0
:100E700090E00E94070266E270E082E090E00E944B
:100E8000070264E670E080E090E00E94F80060E015
:100E900070E082E090E00E94070261E370E080E091
:100EA00090E00E94F80060E070E080E090E00E9436
:100EB00007026AE470E080E090E00E94070264E2CA
:100EC00070E082E090E00E94070264E670E080E05B
:100ED00090E00E94F80060E070E082E090E00E9404
:100EE000070262E370E080E090E00E94F80060E0BA
:100EF00070E080E090E00E94070268E470E080E02B
:100F000090E00E94070260E070E081E090E00E94C3
:100F100007026EE370E081E090E00E94070260E368
:100F200070E082E090E00E94070264E670E080E0FA
:100F300090E00E94F80060E070E082E090E00E94A3
:100F4000070262E370E080E090E00E94F8006FE248
:100F500070E082E090E00E94070264E670E080E0CA
:100F600090E00E94F80060E070E082E090E00E9473
:100F7000070261E370E080E090E00E94F8006DE21B
:100F800070E082E090E00E94070264E670E080E09A
:100F900090E00E94F80060E070E082E090E00E9443
:100FA000070262E370E080E090E00E94F80060E0F9
:100FB00070E080E090E00E94070263E470E080E06F
:100FC00090E00E94070260E070E081E090E00E9403
:100FD000070260E470E081E090E00E9407026BE2AB
:100FE00070E082E090E00E94070264E670E080E03A
:100FF00090E00E94F80060E070E082E090E00E94E3
:10100000070262E370E080E090E00E94F80060E395
:1010100070E082E090E00E94070264E670E080E009
:1010200090E00E94F80060E070E082E090E00E94B2
:10103000070262E370E080E090E00E94F8006FE257
:1010400070E082E090E00E94070264E670E080E0D9
:1010500090E00E94F80060E070E082E090E00E9482
:10106000070262E370E080E090E00E94F80060E038
:1010700070E080E090E00E94070268E470E080E0A9
:1010800090E00E9407026DE270E082E090E00E9432
:10109000070264E670E080E090E00E94F80060E003
:1010A00070E082E090E00E94070262E370E080E07E
:1010B00090E00E94F8006BE270E082E090E00E9415
:1010C000070264E670E080E090E00E94F80060E0D3
:1010D00070E082E090E00E94070261E370E080E04F
:1010E00090E00E94F80060E070E080E090E00E94F4
:1010F000070266E470E080E090E00E94070260E092
:1011000070E081E090E00E9407026CE370E081E013
:1011100090E00E9407026EE270E082E090E00E94A0
:10112000070264E670E080E090E00E94F80060E072
:1011300070E082E090E00E94070262E370E080E0ED
:1011400090E00E94F8006DE270E082E090E00E9482
:10115000070264E670E080E090E00E94F80060E042
:1011600070E082E090E00E94070262E370E080E0BD
:1011700090E00E94F8006BE270E082E090E00E9454
:10118000070264E670E080E090E00E94F80060E012
:1011900070E082E090E00E94070261E370E080E08E
:1011A00090E00E94F80060E070E080E090E00E9433
:1011B000070263E470E080E090E00E94070260E0D4
:1011C00070E081E090E00E9407026EE370E081E051
:1011D00090E00E94070269E270E082E090E00E94E5
:1011E000070264E670E080E090E00E94F80060E0B2
:1011F00070E082E090E00E94070262E370E080E02D
:1012000090E00E94F8006EE270E082E090E00E94C0
:10121000070264E670E080E090E00E94F80060E081
:1012200070E082E090E00E94070262E370E080E0FC
:1012300090E00E94F8006DE270E082E090E00E9491
:10124000070264E670E080E090E00E94F80060E051
:1012500070E082E090E00E94070261E370E080E0CD
:1012600090E00E94F80060E070E080E090E00E9472
:10127000070261E470E080E090E00E9407026BE208
:1012800070E082E090E00E94070264E670E080E097
:1012900090E00E94F80060E070E082E090E00E9440
:1012A000070262E370E080E090E00E94F80060E0F6
:1012B00070E080E090E00E94070263E470E080E06C
:1012C00090E00E94070269E270E082E090E00E94F4
:1012D000070264E670E080E090E00E94F80060E0C1
:1012E00070E082E090E00E94070262E370E080E03C
:1012F00090E00E94F80060E070E081E090E00E94E1
:1013000007026AE370E081E090E00E94070267E272
:1013100070E082E090E00E94070264E670E080E006
:1013200090E00E94F80060E070E082E090E00E94AF
:10133000070261E370E080E090E00E94F80066E25E
:1013400070E082E090E00E94070264E670E080E0D6
:1013500090E00E94F80060E070E082E090E00E947F
:10136000070262E370E080E090E00E94F80060E035
:1013700070E081E090E00E9407026FE370E081E09E
:1013800090E00E94070264E270E082E090E00E9438
:10139000070264E670E080E090E00E94F80060E000
:1013A00070E082E090E00E94070262E370E080E07B
:1013B00090E00E94F80060E070E081E090E00E9420
:1013C00007026AE370E081E090E00E94070262E2B7
:1013D00070E082E090E00E94070264E670E080E046
:1013E00090E00E94F80060E070E082E090E00E94EF
:1013F000070261E370E080E090E00E94F80067E29D
:1014000070E082E090E00E94070264E670E080E015
:1014100090E00E94F80060E070E082E090E00E94BE
:10142000070262E370E080E090E00E94F80060E074
:1014300070E081E090E00E9407026FE370E081E0DD
:1014400090E00E94070266E270E082E090E00E9475
:10145000070264E670E080E090E00E94F80060E03F
:1014600070E082E090E00E94070262E370E080E0BA
:1014700090E00E94F80060E070E081E090E00E945F
:1014800007026AE370E081E090E00E94070264E2F4
:1014900070E082E090E00E9407026AE470E080E081
:1014A00090E00E94F80060E070E080E090E00E9430
:1014B00007026FE370E080E090E00E94070268E1BD
:1014C00070E080E090E00E94F80060E070E082E070
:1014D00090E00E94070262E370E080E090E00E94EA
:1014E000F80060E070E080E090E00E94070261E4B4
:1014F00070E080E090E00E94070262E270E082E02B
:1015000090E00E9407026BE470E080E090E00E94AF
:10151000F80060E070E080E090E00E94070263E481
:1015200070E080E090E00E94070267E170E080E0F8
:1015300090E00E94F80060E070E082E090E00E949D
:10154000070262E370E080E090E00E94F80060E053
:1015500070E081E090E00E94070269E370E081E0C2
:1015600090E00E94070266E270E082E090E00E9454
:10157000070264E670E080E090E00E94F80060E01E
:1015800070E082E090E00E94070262E370E080E099
:1015900090E00E94F80060E070E081E090E00E943E
:1015A00007026EE370E081E090E00E94070264E2CF
:1015B00070E082E090E00E94070264E670E080E064
:1015C00090E00E94F80060E070E082E090E00E940D
:1015D000070261E370E080E090E00E94F80060E0C4
:1015E00070E081E090E00E94070269E370E081E032
:1015F00090E00E94070263E270E082E090E00E94C7
:10160000070264E670E080E090E00E94F80060E08D
:1016100070E082E090E00E94070262E370E080E008
:1016200090E00E94F80060E070E081E090E00E94AD
:1016300007026BE370E081E090E00E94070261E244
:1016400070E082E090E00E94070264E670E080E0D3
:1016500090E00E94F80060E070E082E090E00E947C
:10166000070262E370E080E090E00E94F8006BE225
:1016700070E082E090E00E94070264E670E080E0A3
:1016800090E00E94F80060E070E082E090E00E944C
:1016900007026AE270E080E090E00E94F80060E0FB
:1016A00070E081E090E00E94070265E070E080E079
:1016B00090E00E94F80060E070E080E090E00E941E
:1016C00007026EE370E080E090E00E9407026BE3A7
:1016D00070E081E090E00E94070269E270E082E041
:1016E00090E00E9407026BE470E080E090E00E94CE
:1016F000F80060E070E080E090E00E94070260E4A3
:1017000070E080E090E00E94070260E070E081E01D
:1017100090E00E9407026CE370E081E090E00E949C
:10172000070267E170E080E090E00E94F80060E06E
:1017300070E082E090E00E94070262E370E080E0E7
:1017400090E00E94F80060E070E080E090E00E948D
:10175000070261E470E080E090E00E94070260E030
:1017600070E081E090E00E9407026EE370E081E0AB
:1017700090E00E94070268E270E082E090E00E9440
:1017800007026AE470E080E090E00E94F80060E008
:1017900070E080E090E00E94070263E470E080E087
:1017A00090E00E94070260E070E081E090E00E941B
:1017B000070260E470E081E090E00E94070269E1C6
:1017C00070E080E090E00E94F80060E070E082E06D
:1017D00090E00E94070262E370E080E090E00E94E7
:1017E000F80060E070E080E090E00E94070265E4AD
:1017F00070E080E090E00E94070260E070E081E02D
:1018000090E00E94070261E470E081E090E00E94B5
:10181000070266E270E082E090E00E9407026AE45C
:1018200070E080E090E00E94F80060E070E080E00E
:1018300090E00E94070267E470E080E090E00E9480
:10184000070260E070E081E090E00E94070263E43C
:1018500070E081E090E00E94070268E170E080E0C3
:1018600090E00E94F80060E070E082E090E00E946A
:10187000070261E370E080E090E00E94F80060E021
:1018800070E080E090E00E94070268E470E080E091
:1018900090E00E94070260E070E081E090E00E942A
:1018A00007026EE370E081E090E00E94070260E3CF
:1018B00070E082E090E00E94070264E670E080E061
:1018C00090E00E94F80060E070E082E090E00E940A
:1018D000070262E370E080E090E00E94F8006FE2AF
:1018E00070E082E090E00E94070264E670E080E031
:1018F00090E00E94F80060E070E082E090E00E94DA
:10190000070262E370E080E090E00E94F80060E08F
:1019100070E081E090E00E94070263E470E081E003
:1019200090E00E9407026DE270E082E090E00E9489
:10193000070264E670E080E090E00E94F80060E05A
:1019400070E082E090E00E9407026AE270E080E0CE
:1019500090E00E94F80060E070E081E090E00E947A
:10196000070265E070E080E090E00E94F80060E02F
:1019700070E080E090E00E94070263E470E080E0A5
:1019800090E00E94070260E470E081E090E00E9435
:1019900007026BE270E082E090E00E94070264E6DA
:1019A00070E080E090E00E94F80060E070E082E08B
:1019B00090E00E94070262E370E080E090E00E9405
:1019C000F80060E370E082E090E00E94070264E6C5
:1019D00070E080E090E00E94F80060E070E082E05B
:1019E00090E00E94070262E370E080E090E00E94D5
:1019F000F8006FE270E082E090E00E94070264E687
:101A000070E080E090E00E94F80060E070E082E02A
:101A100090E00E94070261E370E080E090E00E94A5
:101A2000F80060E070E080E090E00E94070268E467
:101A300070E080E090E00E9407026DE270E082E0DA
:101A400090E00E94070264E670E080E090E00E946F
:101A5000F80060E070E082E090E00E94070262E33C
:101A600070E080E090E00E94F8006BE270E082E0BD
:101A700090E00E94070264E670E080E090E00E943F
:101A8000F80060E070E082E090E00E94070262E30C
:101A900070E080E090E00E94F80060E070E080E09C
:101AA00090E00E94070266E470E080E090E00E940F
:101AB000070260E070E081E090E00E9407026CE3C2
:101AC00070E081E090E00E9407026EE270E082E048
:101AD00090E00E94070264E670E080E090E00E94DF
:101AE000F80060E070E082E090E00E94070262E3AC
:101AF00070E080E090E00E94F8006DE270E082E02B
:101B000090E00E94070264E670E080E090E00E94AE
:101B1000F80060E070E082E090E00E94070262E37B
:101B200070E080E090E00E94F80060E070E081E00A
:101B300090E00E94070261E470E081E090E00E9482
:101B400007026BE270E082E090E00E94070264E628
:101B500070E080E090E00E94F80060E070E082E0D9
:101B600090E00E94070262E370E080E090E00E9453
:101B7000F80060E070E080E090E00E94070263E41B
:101B800070E080E090E00E94070260E070E081E099
:101B900090E00E9407026EE370E081E090E00E9416
:101BA000070269E270E082E090E00E94070264E6CA
:101BB00070E080E090E00E94F80060E070E082E079
:101BC00090E00E94070262E370E080E090E00E94F3
:101BD000F8006EE270E082E090E00E94070264E6A6
:101BE00070E080E090E00E94F80060E070E082E049
:101BF00090E00E94070262E370E080E090E00E94C3
:101C0000F8006DE270E082E090E00E94070264E676
:101C100070E080E090E00E94F80060E070E082E018
:101C200090E00E94070262E370E080E090E00E9492
:101C3000F80060E070E080E090E00E94070261E45C
:101C400070E080E090E00E9407026BE270E082E0CA
:101C500090E00E94070264E670E080E090E00E945D
:101C6000F80060E070E082E090E00E94070262E32A
:101C700070E080E090E00E94F80069E270E082E0AD
:101C800090E00E94070264E670E080E090E00E942D
:101C9000F80060E070E082E090E00E9407026CE2F1
:101CA00070E080E090E00E94F80060E070E081E089
:101CB00090E00E94070266E070E080E090E00E9401
:101CC000F80060E070E080E090E00E94070268E4C5
:101CD00070E080E090E00E9407026EE370E081E037
:101CE00090E00E94070260E370E082E090E00E94D2
:101CF000070264E670E080E090E00E94F80060E097
:101D000070E082E090E00E94070262E370E080E011
:101D100090E00E94F8006FE270E082E090E00E94A4
:101D2000070264E670E080E090E00E94F80060E066
:101D300070E082E090E00E94070261E370E080E0E2
:101D400090E00E94F80060E070E081E090E00E9486
:101D5000070263E470E081E090E00E9407026DE218
:101D600070E082E090E00E94070264E670E080E0AC
:101D700090E00E94F80060E070E082E090E00E9455
:101D800007026BE270E080E090E00E94F80060E003
:101D900070E081E090E00E94070265E070E080E082
:101DA00090E00E94F80060E070E080E090E00E9427
:101DB000070263E470E080E090E00E94070260E4C4
:101DC00070E081E090E00E9407026BE270E082E048
:101DD00090E00E94070264E670E080E090E00E94DC
:101DE000F80060E070E082E090E00E94070262E3A9
:101DF00070E080E090E00E94F80060E370E082E034
:101E000090E00E94070264E670E080E090E00E94AB
:101E1000F80060E070E082E090E00E94070262E378
:101E200070E080E090E00E94F8006FE270E082E0F5
:101E300090E00E94070264E670E080E090E00E947B
:101E4000F80060E070E082E090E00E94070262E348
:101E500070E080E090E00E94F80060E070E080E0D8
:101E600090E00E9407026CE370E080E090E00E9446
:101E700007026DE270E082E090E00E9407026AE4EF
:101E800070E080E090E00E94F80060E070E080E0A8
:101E900090E00E94070260E470E080E090E00E9421
:101EA000070269E170E080E090E00E94F80060E0E5
:101EB00070E082E090E00E94070262E370E080E060
:101EC00090E00E94F80060E070E080E090E00E9406
:101ED000070263E470E080E090E00E9407026BE29A
:101EE00070E082E090E00E9407026AE470E080E027
:101EF00090E00E94F80060E070E080E090E00E94D6
:101F0000070268E470E080E090E00E94070268E168
:101F100070E080E090E00E94F80060E070E082E015
:101F200090E00E94070261E370E080E090E00E9490
:101F3000F80060E070E080E090E00E9407026AE450
:101F400070E080E090E00E94070260E070E081E0D5
:101F500090E00E94070261E470E081E090E00E945E
:101F600007026EE270E082E090E00E94070264E601
:101F700070E080E090E00E94F80060E070E082E0B5
:101F800090E00E94070262E370E080E090E00E942F
:101F9000F8006DE270E082E090E00E94070264E6E3
:101FA00070E080E090E00E94F80060E070E082E085
:101FB00090E00E94070262E370E080E090E00E94FF
:101FC000F80060E070E081E090E00E94070266E4C3
:101FD00070E081E090E00E9407026BE270E082E036
:101FE00090E00E94070264E670E080E090E00E94CA
:101FF000F80060E070E082E090E00E94070261E398
:1020000070E080E090E00E94F80060E070E081E025
:1020100090E00E94070261E470E081E090E00E949D
:10202000070269E270E082E090E00E94070264E645
:1020300070E080E090E00E94F80060E070E082E0F4
:1020400090E00E94070262E370E080E090E00E946E
:10205000F8006EE270E082E090E00E94070264E621
:1020600070E080E090E00E94F80060E070E082E0C4
:1020700090E00E94070262E370E080E090E00E943E
:10208000F80060E070E081E090E00E94070266E402
:1020900070E081E090E00E9407026CE270E082E074
:1020A00090E00E94070264E670E080E090E00E9409
:1020B000F80060E070E082E090E00E94070261E3D7
:1020C00070E080E090E00E94F80060E070E081E065
:1020D00090E00E94070264E470E081E090E00E94DA
:1020E00007026BE270E082E090E00E9407026BE47E
:1020F00070E080E090E00E94F80060E070E080E036
:1021000090E00E94070266E470E080E090E00E94A8
:10211000070268E170E080E090E00E94F80060E073
:1021200070E082E090E00E94070262E370E080E0ED
:1021300090E00E94F80060E070E080E090E00E9493
:10214000070268E470E080E090E00E94070269E224
:1021500070E082E090E00E9407026AE470E080E0B4
:1021600090E00E94F80060E070E080E090E00E9463
:1021700007026AE470E080E090E00E94070269E1F3
:1021800070E080E090E00E94F80060E070E082E0A3
:1021900090E00E9407026CE270E080E090E00E9414
:1021A000F80060E070E081E090E00E94070265E0E6
:1021B00070E080E090E00E94F80060E070E080E075
:1021C00090E00E9407026BE470E080E090E00E94E3
:1021D000070261E470E081E090E00E94070263E39F
:1021E00070E082E090E00E94070264E670E080E028
:1021F00090E00E94F80060E070E082E090E00E94D1
:10220000070262E370E080E090E00E94F80062E381
:1022100070E082E090E00E94070264E670E080E0F7
:1022200090E00E94F80060E070E082E090E00E94A0
:10223000070262E370E080E090E00E94F80060E056
:1022400070E081E090E00E94070266E470E081E0C7
:1022500090E00E94070260E370E082E090E00E945C
:10226000070264E670E080E090E00E94F80060E021
:1022700070E082E090E00E9407026BE270E080E094
:1022800090E00E94F80060E070E081E090E00E9441
:10229000070266E070E080E090E00E94F80060E0F5
:1022A00070E080E090E00E94070266E470E080E069
:1022B00090E00E94070263E470E081E090E00E94F9
:1022C00007026EE270E082E090E00E94070264E69E
:1022D00070E080E090E00E94F80060E070E082E052
:1022E00090E00E94070262E370E080E090E00E94CC
:1022F000F80063E370E082E090E00E94070264E689
:1023000070E080E090E00E94F80060E070E082E021
:1023100090E00E94070262E370E080E090E00E949B
:10232000F80062E370E082E090E00E94070264E659
:1023300070E080E090E00E94F80060E070E082E0F1
:1023400090E00E94070265E270E080E090E00E9469
:10235000F80060E070E080E090E00E9407026CE02E
:1023600070E080E090E00E94F80066E470E080E0B9
:1023700090E00E94070260E370E082E090E00E943B
:1023800007026AE470E080E090E00E94F80060E0FC
:1023900070E080E090E00E94070268E470E080E076
:1023A00090E00E94070268E170E080E090E00E9407
:1023B000F80060E070E082E090E00E94070261E3D4
:1023C00070E080E090E00E94F80060E070E080E063
:1023D00090E00E9407026AE470E080E090E00E94D2
:1023E00007026EE270E082E090E00E9407026BE478
:1023F00070E080E090E00E94F80060E070E080E033
:1024000090E00E9407026BE470E080E090E00E94A0
:10241000070267E170E080E090E00E94F80060E071
:1024200070E082E090E00E94070262E370E080E0EA
:1024300090E00E94F80060E070E080E090E00E9490
:1024400007026DE470E080E090E00E94070260E027
:1024500070E081E090E00E94070264E470E081E0B7
:1024600090E00E94070261E370E082E090E00E9449
:10247000070264E670E080E090E00E94F80060E00F
:1024800070E082E090E00E94070261E370E080E08B
:1024900090E00E94F80060E370E082E090E00E942B
:1024A000070264E670E080E090E00E94F80060E0DF
:1024B00070E082E090E00E94070261E370E080E05B
:1024C00090E00E94F80060E070E081E090E00E94FF
:1024D000070269E470E081E090E00E9407026EE28A
:1024E00070E082E090E00E94070264E670E080E025
:1024F00090E00E94F80060E070E082E090E00E94CE
:1025000007026BE270E080E090E00E94F80060E07B
:1025100070E081E090E00E94070265E070E080E0FA
:1025200090E00E94F80060E070E080E090E00E949F
:10253000070269E470E080E090E00E94070264E432
:1025400070E081E090E00E9407026CE270E082E0BF
:1025500090E00E94070264E670E080E090E00E9454
:10256000F80060E070E082E090E00E94070262E321
:1025700070E080E090E00E94F80061E370E082E0AB
:1025800090E00E94070264E670E080E090E00E9424
:10259000F80060E070E082E090E00E94070262E3F1
:1025A00070E080E090E00E94F80060E370E082E07C
:1025B00090E00E94070264E670E080E090E00E94F4
:1025C000F80060E070E082E090E00E94070265E2BF
:1025D00070E080E090E00E94F80060E070E080E051
:1025E00090E00E9407026CE070E080E090E00E94C2
:1025F000F80069E470E080E090E00E94070260E08B
:1026000070E081E090E00E94070269E470E081E000
:1026100090E00E9407026EE270E082E090E00E948B
:1026200007026DE370E080E090E00E94F80060E057
:1026300070E080E090E00E9407026CE070E080E0D3
:1026400090E00E94F8006BE470E080E090E00E946F
:10265000070268E170E080E090E00E94F80060E02E
:1026600070E082E090E00E94070262E370E080E0A8
:1026700090E00E94F80060E070E080E090E00E944E
:1026800007026DE470E080E090E00E9407026CE2D7
:1026900070E082E090E00E94070264E670E080E073
:1026A00090E00E94F80060E070E082E090E00E941C
:1026B000070261E370E080E090E00E94F80060E0D3
:1026C00070E080E090E00E9407026FE470E080E03C
:1026D00090E00E94070260E070E081E090E00E94DC
:1026E000070268E470E081E090E00E9407026BE27C
:1026F00070E082E090E00E94070264E670E080E013
:1027000090E00E94F80060E070E082E090E00E94BB
:10271000070262E370E080E090E00E94F80066E269
:1027200070E082E090E00E94070264E670E080E0E2
:1027300090E00E94F80060E070E082E090E00E948B
:10274000070262E370E080E090E00E94F8006BE234
:1027500070E082E090E00E94070264E670E080E0B2
:1027600090E00E94F80060E070E082E090E00E945B
:10277000070261E370E080E090E00E94F80060E012
:1027800070E081E090E00E94070267E470E081E081
:1027900090E00E94070262E370E082E090E00E9415
:1027A000070264E670E080E090E00E94F80060E0DC
:1027B00070E082E090E00E94070262E370E080E057
:1027C00090E00E94F8006BE270E082E090E00E94EE
:1027D000070264E670E080E090E00E94F80060E0AC
:1027E00070E082E090E00E94070262E370E080E027
:1027F00090E00E94F80062E370E082E090E00E94C6
:10280000070264E670E080E090E00E94F80060E07B
:1028100070E082E090E00E94070262E370E080E0F6
:1028200090E00E94F80060E070E080E090E00E949C
:10283000070268E470E080E090E00E94070260E038
:1028400070E081E090E00E94070265E470E081E0C2
:1028500090E00E94070267E370E082E090E00E944F
:1028600007026BE470E080E090E00E94F80060E016
:1028700070E080E090E00E9407026AE470E080E08F
:1028800090E00E94070260E070E081E090E00E942A
:10289000070267E470E081E090E00E94070267E1D0
:1028A00070E080E090E00E94F80060E070E082E07C
:1028B00090E00E94070262E370E080E090E00E94F6
:1028C000F80060E070E080E090E00E9407026CE4B5
:1028D00070E080E090E00E94070260E070E081E03C
:1028E00090E00E94070268E470E081E090E00E94BE
:1028F000070262E370E082E090E00E9407026AE46F
:1029000070E080E090E00E94F80060E070E080E01D
:1029100090E00E9407026DE470E080E090E00E9489
:10292000070260E070E081E090E00E9407026AE444
:1029300070E081E090E00E94070269E170E080E0D1
:1029400090E00E94F80060E070E082E090E00E9479
:10295000070262E370E080E090E00E94F80060E02F
:1029600070E080E090E00E9407026FE470E080E099
:1029700090E00E94070260E070E081E090E00E9439
:10298000070268E470E081E090E00E9407026BE2D9
:1029900070E082E090E00E94070264E670E080E070
:1029A00090E00E94F80060E070E082E090E00E9419
:1029B000070262E370E080E090E00E94F80066E2C7
:1029C00070E082E090E00E94070264E670E080E040
:1029D00090E00E94F80060E070E082E090E00E94E9
:1029E000070262E370E080E090E00E94F8006BE292
:1029F00070E082E090E00E94070264E670E080E010
:102A000090E00E94F80060E070E082E090E00E94B8
:102A1000070262E370E080E090E00E94F80060E06E
:102A200070E081E090E00E94070267E470E081E0DE
:102A300090E00E94070262E370E082E090E00E9472
:102A4000070264E670E080E090E00E94F80060E039
:102A500070E082E090E00E94070262E370E080E0B4
:102A600090E00E94F8006BE270E082E090E00E944B
:102A7000070264E670E080E090E00E94F80060E009
:102A800070E082E090E00E94070262E370E080E084
:102A900090E00E94F80062E370E082E090E00E9423
:102AA000070264E670E080E090E00E94F80060E0D9
:102AB00070E082E090E00E94070262E370E080E054
:102AC00090E00E94F80060E070E080E090E00E94FA
:102AD000070268E470E080E090E00E94070260E096
:102AE00070E081E090E00E94070265E470E081E020
:102AF00090E00E94070267E370E082E090E00E94AD
:102B000007026AE470E080E090E00E94F80060E074
:102B100070E080E090E00E9407026AE470E080E0EC
:102B200090E00E94070260E070E081E090E00E9487
:102B3000070267E470E081E090E00E94070269E12B
:102B400070E080E090E00E94F80060E070E082E0D9
:102B500090E00E94070261E370E080E090E00E9454
:102B6000F80060E070E080E090E00E9407026CE412
:102B700070E080E090E00E94070260E070E081E099
:102B800090E00E94070268E470E081E090E00E941B
:102B9000070262E370E082E090E00E9407026BE4CB
:102BA00070E080E090E00E94F80060E070E080E07B
:102BB00090E00E9407026DE470E080E090E00E94E7
:102BC000070260E070E081E090E00E9407026AE4A2
:102BD00070E081E090E00E94070267E170E080E031
:102BE00090E00E94F80060E070E082E090E00E94D7
:102BF000070262E370E080E090E00E94F80060E08D
:102C000070E080E090E00E94070262E570E080E002
:102C100090E00E94070260E070E081E090E00E9496
:102C2000070268E470E081E090E00E9407026BE236
:102C300070E082E090E00E94070268EC70E080E0C3
:102C400090E00E94F80060E070E080E090E00E9478
:102C5000070261E570E080E090E00E94070260E01A
:102C600070E081E090E00E94070267E470E081E09C
:102C700090E00E94070262E370E080E090E00E9432
:102C8000F80060E070E082E090E00E94070262E3FA
:102C900070E080E090E00E94F8006BE270E082E07B
:102CA00090E00E94070264E670E080E090E00E94FD
:102CB000F80060E070E080E090E00E94070260E5CC
:102CC00070E080E090E00E94070260E070E081E048
:102CD00090E00E94070266E470E081E090E00E94CC
:102CE000070267E970E080E090E00E94F80060E091
:102CF00070E082E090E00E94070262E370E080E012
:102D000090E00E94F80060E070E080E090E00E94B7
:102D100007026FE470E080E090E00E94070260E04C
:102D200070E081E090E00E94070265E470E081E0DD
:102D300090E00E9407026BE270E082E090E00E9467
:102D4000070268EC70E080E090E00E94F80060E02C
:102D500070E080E090E00E9407026EE470E080E0A6
:102D600090E00E94070260E070E081E090E00E9445
:102D7000070264E470E081E090E00E94070261E3F2
:102D800070E080E090E00E94F80060E070E082E097
:102D900090E00E94070262E370E080E090E00E9411
:102DA000F8006BE270E082E090E00E94070264E6C7
:102DB00070E080E090E00E94F80060E070E080E069
:102DC00090E00E9407026DE470E080E090E00E94D5
:102DD000070260E070E081E090E00E94070263E497
:102DE00070E081E090E00E94070267E970E080E017
:102DF00090E00E94F80060E070E082E090E00E94C5
:102E0000070261E370E080E090E00E94F80060E07B
:102E100070E080E090E00E9407026CE470E080E0E7
:102E200090E00E94070260E070E081E090E00E9484
:102E3000070262E470E081E090E00E9407026BE22A
:102E400070E082E090E00E94070268E370E080E0BA
:102E500090E00E94F80060E070E082E090E00E9464
:102E6000070262E170E080E090E00E94F80060E01C
:102E700070E080E090E00E9407026BE470E080E088
:102E800090E00E94070260E070E081E090E00E9424
:102E9000070261E470E081E090E00E9407026BE2CB
:102EA00070E082E090E00E9407026AE470E080E057
:102EB00090E00E94F80060E070E080E090E00E9406
:102EC000070260E070E081E090E00E94070269E1A3
:102ED00070E080E090E00E94F80060E070E082E046
:102EE00090E00E94070261E370E080E090E00E94C1
:102EF000F8006AE470E080E090E00E94070260E47D
:102F000070E081E090E00E9407026BE270E082E0F6
:102F100090E00E94070268E370E080E090E00E9489
:102F2000F80060E070E082E090E00E94070262E159
:102F300070E080E090E00E94F80060E070E080E0E7
:102F400090E00E94070269E470E080E090E00E9457
:102F5000070260E070E081E090E00E9407026FE30A
:102F600070E081E090E00E9407026BE270E082E096
:102F700090E00E9407026CE572E080E090E00E9421
:102F8000F80060E070E080E090E00E94070260E0FE
:102F900070E081E090E00E94070260E070E082E073
:102FA00090E00E940702209711F40C9445030E94C0
:102FB00000000C944503E9E0F2E088E0808389E0BA
:102FC00081838AE08283CF010C94AE01052E97FBAA
:102FD0001EF400940E94FD1757FD07D00E940518AB
:102FE00007FC03D04EF40C94FD1750954095309596
:102FF00021953F4F4F4F5F4F089590958095709565
:1030000061957F4F8F4F9F4F0895A1E21A2EAA1B03
:10301000BB1BFD010DC0AA1FBB1FEE1FFF1FA21788
:10302000B307E407F50720F0A21BB30BE40BF50B85
:10303000661F771F881F991F1A9469F7609570950E
:10304000809590959B01AC01BD01CF010895EE0FD5
:0E305000FF1F0590F491E02D0994F894FFCF36
:10305E000000090009000A000A000B000C000C0019
:10306E000D000E000F000F001000110012001300D3
:10307E0015001600170019001A001C001D001F0075
:10308E00210023002500270029002C002E003100EE
:10309E00340037003A003E004100450049004E0022
:1030AE00520057005D00620068006E0075007C00E3
:1030BE0083008B0093009C00A500AF00B900C400F4
:1030CE00D000DC00E900F7000601150126013701EA
:1030DE004A015D01720188019F01B801D201EE0122
:1030EE000B022A024B026E029302BB02E402100391
:1030FE003F037003A403DC03170455049704DD0497
:10310E0027057505C80520067D06E0064907B807A0
:10311E002D08AA082D09B9094D0AEA0A900B400C90
:10312E00FA0CC00D910E6F0F5A1053115B127213E1
:10313E009A14D31520178018F519801B231DDE1E37
:10314E00B420A622B524E4263429A72B402E003124
:107E0000112484B714BE81FFF0D085E080938100F7
:107E100082E08093C00088E18093C10086E0809377
:107E2000C20080E18093C4008EE0C9D0259A86E02C
:107E300020E33CEF91E0309385002093840096BBD3
:107E4000B09BFECF1D9AA8958150A9F7CC24DD24C4
:107E500088248394B5E0AB2EA1E19A2EF3E0BF2EE7
:107E6000A2D0813461F49FD0082FAFD0023811F036
:107E7000013811F484E001C083E08DD089C08234E0
:107E800011F484E103C0853419F485E0A6D080C0E4
:107E9000853579F488D0E82EFF2485D0082F10E0AE
:107EA000102F00270E291F29000F111F8ED06801E7
:107EB0006FC0863521F484E090D080E0DECF843638
:107EC00009F040C070D06FD0082F6DD080E0C81688
:107ED00080E7D80618F4F601B7BEE895C0E0D1E017
:107EE00062D089930C17E1F7F0E0CF16F0E7DF06D8
:107EF00018F0F601B7BEE89568D007B600FCFDCFD4
:107F0000A601A0E0B1E02C9130E011968C91119780
:107F100090E0982F8827822B932B1296FA010C0160
:107F200087BEE89511244E5F5F4FF1E0A038BF0790
:107F300051F7F601A7BEE89507B600FCFDCF97BE46
:107F4000E89526C08437B1F42ED02DD0F82E2BD052
:107F50003CD0F601EF2C8F010F5F1F4F84911BD097
:107F6000EA94F801C1F70894C11CD11CFA94CF0C13
:107F7000D11C0EC0853739F428D08EE10CD085E9AC
:107F80000AD08FE07ACF813511F488E018D01DD067
:107F900080E101D065CF982F8091C00085FFFCCF94
:107FA0009093C60008958091C00087FFFCCF809118
:107FB000C00084FD01C0A8958091C6000895E0E648
:107FC000F0E098E1908380830895EDDF803219F02E
:107FD00088E0F5DFFFCF84E1DECF1F93182FE3DFCA
:107FE0001150E9F7F2DF1F91089580E0E8DFEE27F6
:047FF000FF270994CA
:027FFE00040479
:0400000300007E007B
:00000001FF