:100000000C948E000C94B6000C94B6000C94B600C0
:100010000C94B6000C94B6000C94B6000C94B60088
:100020000C94B6000C94B6000C94B6000C94B60078
:100030000C94B6000C94B6000C94B6000C94B60068
:100040000C94DD020C94B6000C942E020C94080261
:100050000C94B6000C94B6000C94B6000C94B60048
:100060000C94B6000C94B6007C3C3E5E2B3D3F2FBA
:100070005B5D3B2C2A225C000000000800020100AE
:100080000003040700000000000000006F6B2E005A
:1000900043617264206661696C65642C206F722014
:1000A0006E6F742070726573656E7400496E69744A
:1000B00069616C697A696E67205344206361726478
:1000C0002E2E2E006572726F72206F70656E696ED3
:1000D0006720646174616C6F672E7478740000002F
:1000E0000000250028002B0000000000240027004D
:1000F0002A000404040404040404020202020202AA
:1001000003030303030301020408102040800102DB
:10011000040810200102040810206D1111241FBED4
:10012000CFEFD8E0DEBFCDBF11E0A0E0B1E0E0E36B
:10013000FCE202C005900D92AA35B107D9F724E080
:10014000AAE5B1E001C01D92AB35B207E1F710E0BE
:10015000CEE8D0E004C02197FE010E94B314CD3850
:10016000D107C9F70E94B5110C9416160C94000023
:10017000CF92DF92EF92FF920F931F93CF93DF9373
:100180006C017A018B01C0E0D0E0CE15DF0589F06B
:10019000D8016D918D01D601ED91FC910190F08116
:1001A000E02DC6010995892B11F47E0102C021962C
:1001B000ECCFC701DF91CF911F910F91FF90EF908E
:1001C000DF90CF900895FC01918D828D981761F09A
:1001D000828DDF01A80FB11D5D968C91928D9F5F7E
:1001E0009F73928F90E008958FEF9FEF0895FC0129
:1001F000918D828D981731F0828DE80FF11D858DDC
:1002000090E008958FEF9FEF0895FC01918D228D6E
:10021000892F90E0805C9F4F821B91098F739927F3
:1002200008958EE693E00E94050121E0892B09F4F0
:1002300020E0822F0895FC01848DDF01A80FB11DFD
:10024000A35ABF4F2C91848D90E001968F7399270C
:10025000848FA689B7892C93A089B1898C918064F9
:100260008C93938D848D981306C00288F389E02DBA
:1002700080818F7D80830895EF92FF920F931F936B
:10028000CF93DF93EC0181E0888F9B8D8C8D981349
:1002900005C0E889F989808185FD24C0F62E0B8D83
:1002A00010E00F5F1F4F0F731127E02E8C8DE812A7
:1002B0000CC00FB607FCFACFE889F989808185FF69
:1002C000F5CFCE010E941B01F1CF8B8DFE01E80F0F
:1002D000F11DE35AFF4FF0820B8FEA89FB89808181
:1002E000806207C0EE89FF896083E889F98980818F
:1002F0008064808381E090E0DF91CF911F910F9126
:10030000FF90EF900895CF93DF93EC01888D8823C1
:10031000C9F0EA89FB89808185FD05C0A889B98972
:100320008C9186FD0FC00FB607FCF5CF808185FF4D
:10033000F2CFA889B9898C9185FFEDCFCE010E94BB
:100340001B01E7CFDF91CF91089580E090E0892BEA
:1003500029F00E94110181110C9400000895DC0124
:100360005996ED91FC915A973097B9F08389948909
:10037000A589B6894285538564857585841B950B4F
:10038000A60BB70B811520E89207A105B10538F03F
:100390008FEF9FE7A0E0B0E0089580E090E008953F
:1003A000CF93DF931F92CDB7DEB76983DC01ED9168
:1003B000FC910280F381E02D41E050E0BE016F5FCF
:1003C0007F4F09950F90DF91CF91089523E432E498
:1003D000FC013183208380E098E4FB0191838083DA
:1003E00008950E94F5156115710579F0FB010190E2
:1003F0000020E9F73197AF01461B570BDC01ED9167
:10040000FC910280F381E02D099480E090E0089552
:100410001F920F920FB60F9211242F933F934F9379
:100420005F936F937F938F939F93AF93BF93EF935C
:10043000FF938EE693E00E941B01FF91EF91BF9125
:10044000AF919F918F917F916F915F914F913F916C
:100450002F910F900FBE0F901F9018951F920F9223
:100460000FB60F9211242F938F939F93EF93FF93C7
:10047000E0917E03F0917F038081E0918403F0910D
:10048000850382FD12C09081809187038F5F8F73F7
:1004900020918803821751F0E0918703F0E0E25940
:1004A000FC4F958F8093870301C08081FF91EF916E
:1004B0009F918F912F910F900FBE0F901F901895C5
:1004C00090E0FC01E858FF4F3491FC01EA5FFE4FD9
:1004D0002491FC01EE50FF4FE491EE2309F43BC060
:1004E000332339F1333091F038F43130A9F0323020
:1004F00001F584B58F7D12C0373091F03830A1F00E
:100500003430B9F4809180008F7D03C080918000E9
:100510008F77809380000DC084B58F7784BD09C02C
:100520008091B0008F7703C08091B0008F7D809361
:10053000B000F0E0EE0FFF1FE252FF4FA591B49123
:100540008FB7F894EC91611103C020952E2301C060
:100550002E2B2C938FBF08953FB7F894809166019E
:1005600090916701A0916801B091690126B5A89B9F
:1005700005C02F3F19F00196A11DB11D3FBFBA2F35
:10058000A92F982F8827820F911DA11DB11DBC0195
:10059000CD0142E0660F771F881F991F4A95D1F75A
:1005A00008952FB7F8946091620170916301809172
:1005B0006401909165012FBF08951F920F920FB6AD
:1005C0000F9211242F933F938F939F93AF93BF93D9
:1005D0008091620190916301A0916401B0916501E5
:1005E0003091610123E0230F2D3720F40196A11DE6
:1005F000B11D05C026E8230F0296A11DB11D209351
:1006000061018093620190936301A0936401B093B0
:1006100065018091660190916701A0916801B09198
:1006200069010196A11DB11D809366019093670138
:10063000A0936801B0936901BF91AF919F918F9191
:100640003F912F910F900FBE0F901F9018958FB76D
:10065000F89480915B018FBF089561E0FC01848173
:100660000E94600280915A01811110925A010895EE
:100670008EBD00000DB407FEFDCF8EB508958FEF3F
:100680000C9438030F931F93CF93DF93EB010E94D9
:10069000D1028B010E943F038F3F49F00E94D1029B
:1006A000601B710B6C177D07A8F380E001C081E02F
:1006B000DF91CF911F910F910895CF93DF93EC01BC
:1006C0008E81882389F08F8198859C012F5F3F4F11
:1006D00038872F838230924018F40E943F03F3CF73
:1006E000CE010E942D031E82DF91CF9108958CBD13
:1006F0009DBD0895CF93DF93EC0180915A01811144
:1007000009C081E080935A0180910B0490910C0400
:100710000E94770360E08C81DF91CF910C9460029E
:10072000CF92DF92FF920F931F93CF93DF9300D06E
:1007300000D0CDB7DEB76C01F62E29833A834B8308
:100740005C830E945D03C6010E947A036CE271E043
:10075000C6010E9442038F2D80640E94380308E185
:1007600010E05C814B813A812981DA01C901002EB8
:1007700004C0B695A795979587950A94D2F72983D3
:100780003A834B835C830E94380308501109298106
:100790003A814B815C81083F8FEF180731F7FF20CA
:1007A00029F0E8E0FE1204C087E803C085E901C033
:1007B0008FEF0E94380310E00E943F03F60182870A
:1007C00087FF04C01F3F11F01F5FF6CF0F900F90FF
:1007D0000F900F90DF91CF911F910F91FF90DF90BD
:1007E000CF900895AF92BF92CF92DF92EF92FF9297
:1007F0000F931F93CF93DF93EC016901C801820F20
:10080000931F8130924008F070C08E81882371F070
:1008100088819981AA81BB81481759076A077B079C
:1008200029F48F819885C816D906B0F54883598375
:100830006A837B838B85833039F089E0440F551FB1
:10084000661F771F8A95D1F79A01AB0161E1CE014E
:100850000E949003882319F083E08D8346C00E9494
:10086000D1025B010E943F038A878F3F49F40E94B7
:10087000D1026A197B096D327140A0F38FE003C089
:100880008E3F31F08DE08D83CE010E942D032DC06F
:1008900018861F8281E08E838F8198858C159D0537
:1008A00040F40E943F038F819885019698878F833B
:1008B000F3CF6701E00EF11ECE14DF0431F00E9489
:1008C0003F03F60181936F01F7CF8F819885080F61
:1008D000191F18870F838985882319F00115124085
:1008E00048F0CE010E945D0305C0CE010E942D0399
:1008F00080E001C081E0DF91CF911F910F91FF90C7
:10090000EF90DF90CF90BF90AF900895EF92FF925D
:100910000F931F93CF93DF93EC017901411551059C
:100920006105710511F482E13CC08B85833039F09B
:1009300089E0440F551F661F771F8A95D1F79A01EA
:10094000AB0168E1CE010E949003882311F084E09E
:1009500028C08EEF0E94380387018EEFF81AF80145
:1009600081918F010E9438030E151F05C1F78FEF8B
:100970000E9438038FEF0E9438030E943F038A874A
:100980008F71853031F081E18D83CE010E942D037E
:1009900009C068E572E0CE010E944203811107C0E0
:1009A00085E18D83CE010E942D0380E013C020E0FD
:1009B00030E0A9016DE0CE010E949003811104C0D6
:1009C0000E943F03882311F084E1EBCFCE010E9407
:1009D0002D0381E0DF91CF911F910F91FF90EF9058
:1009E000089580915C018823A9F140910001509104
:1009F000010160910201709103012CE631E08091C8
:100A00006C0390916D030E948604811102C080E006
:100A1000089540915D0150915E0160915F01709178
:100A20006001411551056105710591F02CE631E039
:100A300080916C0390916D030E948604882339F3A2
:100A400010925D0110925E0110925F0110926001A0
:100A500010925C0181E008958F929F92AF92BF92B5
:100A6000EF92FF920F931F93CF934B015C01C42F22
:100A70008091000190910101A0910201B0910301C8
:100A800088159905AA05BB0501F10E94F1048111A1
:100A900002C080E020C08CE6E82E81E0F82E00E065
:100AA00012E020E030E0B501A40180916C03909148
:100AB0006D030E94F203882361F3809200019092FB
:100AC0000101A0920201B092030180915C01C82B48
:100AD000C0935C0181E0CF911F910F91FF90EF9047
:100AE000BF90AF909F908F9008954F925F926F92BA
:100AF0007F928F929F92AF92BF92CF92DF92EF92AE
:100B0000FF920F931F93CF93DF93EC016A017B0158
:100B100028013901423051056105710510F480E06A
:100B200073C089859A85AB85BC850196A11DB11DD1
:100B300084179507A607B70790F38B889C88AD8824
:100B4000BE888F89803129F4BB27AF2D9E2D8D2D36
:100B500009C0DB01CA0147E0B695A795979587952F
:100B60004A95D1F7880E991EAA1EBB1E80910001DE
:100B700090910101A0910201B0910301881699069C
:100B8000AA06BB0679F48F898031A1F4DD24EE2416
:100B9000FF24C601880F991FFC01E459FE4F5182C2
:100BA000408219C040E0C501B4010E942C058111AA
:100BB000EACFB5CFE894C7F8DD24EE24FF24C601C0
:100BC000880F991F880F991FFC01E459FE4F40823E
:100BD00051826282738280915C01816080935C01AA
:100BE0008A89823080F08D819E81AF81B885880EA0
:100BF000991EAA1EBB1E80925D0190925E01A0927A
:100C00005F01B092600181E0DF91CF911F910F9160
:100C1000FF90EF90DF90CF90BF90AF909F908F901C
:100C20007F906F905F904F9008958F929F92AF92B8
:100C3000BF92CF92DF92EF92FF920F931F93CF93C9
:100C4000DF93FC0181859285A385B4850196A11D62
:100C5000B11D84179507A607B70710F480E05CC0A4
:100C600083899489A589B689C789C03129F4852EDD
:100C7000962EA72EBB2409C04A015B01C7E0B6949B
:100C8000A79497948794CA95D1F7E9016A017B01EB
:100C90008F01BC01CD01680D791D8A1D9B1D8090BF
:100CA000000190900101A0900201B090030168152D
:100CB00079058A059B0599F4F80187898031A9F4A3
:100CC000B701A601552766277727440F551FFA015C
:100CD000E459FE4F80819181A0E0B0E018C040E06F
:100CE0000E942C058111E8CFB9CFB701A6014F773B
:100CF000552766277727440F551F440F551FFA01C4
:100D0000E459FE4F80819181A281B381BF708883B5
:100D10009983AA83BB8381E0DF91CF911F910F91CB
:100D2000FF90EF90DF90CF90BF90AF909F908F900B
:100D300008954F925F926F927F92AF92BF92CF923F
:100D4000DF92EF92FF920F931F93CF93DF9300D028
:100D500000D0CDB7DEB78C0149835A836B837C8387
:100D60005901C12CD12C7601412C82E0582E612CE6
:100D7000712C49815A816B817C819E012F5F3F4F8D
:100D8000C8010E941506882351F1D301C201F80160
:100D9000058404C0880F991FAA1FBB1F0A94D2F7AD
:100DA000C80ED91EEA1EFB1E49815A816B817C81C7
:100DB0008789803129F088EF9FEFAFEFBFE004C053
:100DC00088EF9FEFA0E0B0E0481759076A077B075C
:100DD00080F2F501C082D182E282F38281E00F903D
:100DE0000F900F900F90DF91CF911F910F91FF9077
:100DF000EF90DF90CF90BF90AF907F906F905F901B
:100E00004F9008958F929F92AF92BF92CF92DF92B0
:100E1000EF92FF920F931F93CF93DF93EC018D819D
:100E2000811102C080E077C00B891C892D893E8921
:100E30000417150726073707A8F36A017B018230DC
:100E400029F4CA86DB86EC86FD860DC0C114D10468
:100E5000E104F10451F41E821F82188619861A8655
:100E60001B861C861D8681E056C08A849B84AC84C8
:100E7000BD84EB8DFC8D258530E0275F3F4FB501AC
:100E8000A4014150510961097109022E04C07695EF
:100E90006795579547950A94D2F7D701C6010197F0
:100EA000A109B10904C0B695A795979587952A958C
:100EB000D2F784179507A607B70720F089288A2854
:100EC0008B2849F44F89588D698D7A8D4E835F83C5
:100ED0006887798704C0841B950BA60BB70B4C0160
:100EE0005D018E010A5F1F4F81149104A104B104BA
:100EF00009F4A7CF4E815F816885798598018B8D34
:100F00009C8D0E94150691E0891A9108A108B108EC
:100F10008111EACF87CFDF91CF911F910F91FF9081
:100F2000EF90DF90CF90BF90AF909F908F900895FB
:100F30003F924F925F926F927F928F929F92AF9269
:100F4000BF92CF92DF92EF92FF920F931F93CF93B6
:100F5000DF93CDB7DEB72C970FB6F894DEBF0FBE88
:100F6000CDBF5C01DC015B968D909C905C971696E2
:100F7000CD90DD90ED90FC901997C114D104E1045F
:100F8000F10439F0BFEFCB1ADB0AEB0AFB0A312C74
:100F900007C0F401C080D180E280F3803324339411
:100FA000F40181859285A385B4859C01AD012F5FF5
:100FB0003F4F4F4F5F4F29873A874B875C8726010A
:100FC00037011D821E821F821886F4018185928559
:100FD000A385B4852D813E814F8158852817390717
:100FE0004A075B0708F063C089859A85AB85BC8595
:100FF0008C159D05AE05BF0550F482E0C82ED12C9E
:10100000E12CF12C92E0492E512C612C712C9E0187
:101010002F5F3F4FB701A601C4010E941506882328
:1010200009F445C089819A81AB81BC81892B8A2BC7
:101030008B2B41F0260137019FEF491A590A690AA3
:10104000790A05C0C414D504E604F70491F02D8193
:101050003E814F8158852F5F3F4F4F4F5F4F2D830C
:101060003E834F8358873FEFC31AD30AE30AF30A3C
:10107000ACCF0FEF1FEF2FEF3FE0B301A201C40190
:101080000E947505882399F0D50116964D915D91C2
:101090006D917C911997411551056105710549F0D4
:1010A00093018201C4010E947505811102C080E094
:1010B0002AC0D50116964D925D926D927C92199739
:1010C000332051F0D301C2010196A11DB11DF401DD
:1010D00080839183A283B383F5018789908DA18D4D
:1010E000B28D892B8A2B8B2B69F4D50157964D92A3
:1010F0005D926D927C925A9714968C9114978068A9
:1011000014968C9381E02C960FB6F894DEBF0FBE38
:10111000CDBFDF91CF911F910F91FF90EF90DF90A6
:10112000CF90BF90AF909F908F907F906F905F9087
:101130004F903F9008952F923F924F925F926F92FF
:101140007F928F929F92AF92BF92CF92DF92EF9257
:10115000FF920F931F93CF93DF9300D0CDB7DEB7ED
:10116000FC018581882309F4D9C0848180FFD6C021
:1011700021E02A834389548965897689828593850C
:10118000A485B585481759076A077B0709F41A82B1
:101190006F013A81832F90E0DE0111964D013F01EE
:1011A000B6E06B0E711C892B09F47DC0D6011A962E
:1011B0004D915D916D917C911D975A01B1E0BB22DB
:1011C000F60125811A012B0189E056944794379442
:1011D00027948A95D1F7838D948D223061F4FC0198
:1011E000828D938DA48DB58DBC01CD01620D731DD3
:1011F000841D951D45C0DC0114961C9111501221CF
:10120000A114B104D1F4111118C0452B462B472B62
:1012100051F4F6018789908DA18DB28D86839783D5
:10122000A087B1870AC04681578160857185930187
:101230000E941506882309F471C0F601238D348DB0
:1012400086819781A085B1850297A109B109AC017A
:10125000BD01F901058404C0440F551F661F771FA7
:101260000A94D2F786859785A089B189840F951F46
:10127000A61FB71FBC01CD01610F711D811D911DFE
:10128000D60114962C9126FF14C0009100011091F4
:10129000010120910201309103016017710782075B
:1012A000930751F506C0FA81FF23C1F1898190E0CF
:1012B00037C040E00E942C05882381F1F501E459F4
:1012C000FE4FD401CF010196E817F90719F02191DB
:1012D0002D93FACFEFEF8E1A9E0AF6018285938541
:1012E000A485B5850196A11DB11D82879387A4872A
:1012F000B58780E090E057CF740101E010E09501E0
:10130000AB01BC0180916C0390916D030E94F203CC
:10131000882321F0BFEF8B1A9B0ADFCF8FEF9FEF5F
:101320000F900F90DF91CF911F910F91FF90EF9051
:10133000DF90CF90BF90AF909F908F907F906F90F5
:101340005F904F903F902F900895FC01818D928D7A
:10135000009711F00C949B088FEF9FEF08950F9367
:101360001F93CF93DF93FC01818D928D0097B9F08D
:10137000EF010E949B088C010F3F8FEF180791F03F
:10138000898D9A8DFC014285538564857585415010
:101390005109610971090E940207C80105C080E076
:1013A00090E002C08FEF9FEFDF91CF911F910F91DF
:1013B00008950F931F93CF93DF93EC018D818823C2
:1013C00009F447C08C8187FF3EC06E857F85888980
:1013D000998941E00E942C058823D9F18A8920E26D
:1013E000829FC0011124FC01E459FE4F309789F11E
:1013F0002D81223040F44B895C896D897E89448F30
:10140000558F668F778F4F89588D698D7A8D8C01B6
:1014100004591E4FF801538F428F758B648BE091F6
:101420006A01F0916B01309759F0BC016E577E4F05
:101430008C579E4F0995F801808D918D938B828BEF
:101440008C818F778C83DF91CF911F910F910C94BA
:10145000F10480E0DF91CF911F910F9108958F9259
:101460009F92AF92BF92CF92DF92EF92FF920F9333
:101470001F93CF93DF9300D000D0CDB7DEB77C01B0
:1014800080E2689F60011124960124593E4FD901E2
:101490001B969C91917121F0842F827409F097C062
:1014A000142FF701628B8091000190910101A091AE
:1014B0000201B091030186879787A08BB18BF6015B
:1014C000E459FE4F4489558960E070E0BA01552720
:1014D0004427D70157964D935D936D937C935A970C
:1014E000828D938DA0E0B0E0482B592B6A2B7B2B8B
:1014F000D70157964D935D936D937C935A97D9017D
:101500001B968C91887159F4848D958DA68DB78D1D
:10151000F701838B948BA58BB68B81E012C0803151
:1015200009F055C097012D5E3F4FD7015B968D9115
:101530009C915C970E949906882309F448C084E036
:10154000F7018583812F8F70D70114968C931497A0
:10155000F70116821782108611861A961D921D9227
:101560001D921C921D9716FF34C015968C918130E8
:1015700071F511FF2CC0F70143895489658976897B
:10158000452B462B472B09F461C040E050E0BA01DF
:10159000C7010E9402078823D1F0F7018788908C49
:1015A000A18CB28CC38CD48C82E090E0A0E0B0E03F
:1015B000F60180839183A283B3839E012F5F3F4F07
:1015C000B501A401C6010E941506811104C080E086
:1015D0003DC081E03BC000E010E09801B501A401EE
:1015E000C6010E947505882391F389809A80AB809B
:1015F000BC80D60157968C91803129F088EF9FEFFF
:10160000AFEFBFE004C088EF9FEFA0E0B0E0881626
:101610009906AA06BB0688F2D70157961D921D921D
:101620001D921C925A97F701138A148A158A168AFA
:10163000848180688483C7010E94D909882339F294
:1016400040E050E0BA01C7010E9402070F900F90DE
:101650000F900F90DF91CF911F910F91FF90EF901E
:10166000DF90CF90BF90AF909F908F9008954F9252
:101670005F926F927F92AF92BF92CF92DF92EF9282
:10168000FF920F931F93CF93DF93CDB7DEB72B97C6
:101690000FB6F894DEBF0FBECDBF7C01CE01019620
:1016A0006C01FC0190E28BE08C0D91938E13FDCFC9
:1016B000DA0130E047E09D91992339F19E3219F02B
:1016C000E8E6F0E00AC04A3009F47FC138E04AE0B9
:1016D000F2CF3196891709F478C184918111F9CF3D
:1016E000431708F472C18FED890F8E3508F06DC174
:1016F00081E0830FF601E30FF11D3FE9390F3A3125
:1017000008F490529083382FD6CF8981803209F423
:101710005CC1B22E8B01DB015B968D919C915C9735
:10172000F701948F838F16961D921D921D921C9225
:101730001997FB011286138614861586A12CF801D1
:1017400082859385A485B585438954896589768981
:1017500084179507A607B70708F061C025E0B6957E
:10176000A795979587952A95D1F7F82FFF707F2E2B
:10177000D80115968C91823008F427C1C8010E94C7
:101780009B0897FD22C1F80182859385A485B585C4
:101790004F96A11DB11D82879387A487B587F0E27C
:1017A0007F9EC0011124BC0164597E4F61157105F3
:1017B00009F40BC1DB012C91222319F0253EC1F461
:1017C00027C0A1100EC0F701728A4091000150910C
:1017D0000101609102017091030146875787608B78
:1017E000718BFC01E459FE4F8081811113C015C03B
:1017F0004BE050E0C6010E94FA15892B09F09FCFFB
:101800008B2D8073803309F4E0C04B2D672DD9C038
:10181000AA20C9F2AA24A39492CFAA24A3948B2D20
:101820008271823109F0D1C0AA20D1F0D7011E9671
:101830006D917D918D919C91519741E00E942C0575
:10184000882309F4C2C0F7010289F0E20F9F8001EA
:10185000112404591E4F0115110509F079C0B5C0B6
:10186000D80115968C91823009F4AFC0C8010E944E
:101870009807882309F4A9C0D8015B96ED91FC91E3
:101880005C9716964D905D906D907C901997B2E0A4
:101890004B1A510861087108058404C0440C551C9A
:1018A000661C771C0A94D2F786859785A089B18932
:1018B000480E591E6A1E7B1EA480E1E04E1A510894
:1018C00061087108AA2009F10E94F104882309F433
:1018D0007CC0ECE6F1E0119223E0EC36F207D9F798
:1018E000D301C2018A0D911DA11DB11D809300017C
:1018F00090930101A0930201B093030180915C01D8
:10190000816080935C01AA94DDCFD8015B96ED9154
:10191000FC915C9780E092E0A0E0B0E0058404C018
:10192000880F991FAA1FBB1F0A94D2F7F801438999
:10193000548965897689840F951FA61FB71F838BED
:10194000948BA58BB68BD70152961C920CE611E0B6
:1019500080E2F80111928A95E9F78BE0F601D8014F
:1019600001900D928A95E1F7E0916A01F0916B0187
:10197000309739F0B801625F7F4FC80140960995F2
:101980000DC081E298E2D80151969C938E935097B6
:1019900080E098E01F969C938E931E97F8018089B3
:1019A0009189938B828B918F808F86859785978B7A
:1019B000868B0E94F104882341F04B2DD70152966B
:1019C0006C91C7010E942F0A01C080E02B960FB6D0
:1019D000F894DEBF0FBECDBFDF91CF911F910F9165
:1019E000FF90EF90DF90CF90BF90AF907F906F907F
:1019F0005F904F900895CF93DF93EC010E94D90937
:101A0000882311F01D8281E0DF91CF910895FC01C0
:101A1000818D928D009711F00C94D90908952F9221
:101A20003F924F925F926F927F928F929F92AF926E
:101A3000BF92CF92DF92EF92FF920F931F93CF93BB
:101A4000DF9300D000D0CDB7DEB78C016B013A0137
:101A5000DC0115968C9115978130C9F414968C9100
:101A600081FF15C082FF1DC0F80143895489658933
:101A7000768982859385A485B58584179507A60701
:101A8000B70779F0C8010E94020781110AC081E0FE
:101A900090E0D80113969C938E93129780E090E08B
:101AA00048C1430184C0D8015B968D919C915C979D
:101AB000FC0154802FEF250D1A012B0139E05694BB
:101AC0004794379427943A95D1F7522E52207A01B1
:101AD000F1E0FF22552009F476C080E092E08E19F3
:101AE0009F0954018815990508F45C01D8015B969B
:101AF0002D913C915C9716968D919D910D90BC9186
:101B0000A02D0297A109B109F901058404C0880F2D
:101B1000991FAA1FBB1F0A94D2F746855785608973
:101B20007189840F951FA61FB71F9C01AD01250D5C
:101B3000311D411D511D19012A01A11432E0B306C6
:101B400009F088C08091000190910101A0910201EB
:101B5000B091030182159305A405B50559F48FEFE3
:101B60009FEFDC018093000190930101A09302019B
:101B7000B09303019601B201A10180916C03909191
:101B80006D030E948604882309F481CF9EEFD91A41
:101B90008A189B08F80182859385A485B5858A0DEE
:101BA0009B1DA11DB11D82879387A487B587D8018E
:101BB0001A964D915D916D917C911D9781149104C0
:101BC00009F071CF87C0E114F10409F086CF1696B1
:101BD0004D915D916D917C9119974115510561056C
:101BE000710559F457968D919D910D90BC91A02D42
:101BF0000097A105B10541F521C09E012F5F3F4F20
:101C00000E941506882309F44ACF89819A81AB8105
:101C1000BC81F801238D348DF9012789203129F009
:101C200048EF5FEF6FEF7FE004C048EF5FEF60E0E9
:101C300070E084179507A607B70730F0C8010E9427
:101C4000980781114ACF23CFF80186839783A08715
:101C5000B18743CFE114F10429F5D8011A964D91CB
:101C60005D916D917C911D9753968D919D910D90F5
:101C7000BC91A02D481759076A077B0798F00E946E
:101C8000F104882309F403CF20920001309201016E
:101C9000409202015092030180915C018160809327
:101CA0005C0108C041E0C201B1010E942C058823FB
:101CB00009F4EDCED601F701E459FE4FCF018A0DAC
:101CC0009B1DE817F90719F02D912193FACFCA0C43
:101CD000DB1C5ECF5396CD90DD90ED90FC90569737
:101CE00014968C91C416D506E606F70640F4F80162
:101CF000438B548B658B768B806884830DC02091D9
:101D00006A0130916B01232B39F06114710421F0C9
:101D10008068D80114968C93F801848183FD02C0F9
:101D2000C30107C0C8010E94D909882309F4AFCEB6
:101D3000F7CF0F900F900F900F90DF91CF911F91E1
:101D40000F91FF90EF90DF90CF90BF90AF909F905A
:101D50008F907F906F905F904F903F902F9008955D
:101D6000CF93DF931F92CDB7DEB7698341E050E098
:101D7000BE016F5F7F4F0E940F0D0F90DF91CF91DB
:101D80000895CF93DF93EC01898D9A8D009739F4F4
:101D900081E090E09B838A8380E090E00BC0FC01AF
:101DA000138212820E940F0DE98DFA8D22813381F8
:101DB000232B71F7DF91CF910895FC01DB0112967F
:101DC0008D919C911397938382838FE391E091830C
:101DD000808314968C911497848315968C91159713
:101DE000858316964D915D916D917C9119974683EF
:101DF0005783608771871A964D915D916D917C91A3
:101E00001D9742875387648775871E964D915D9114
:101E10006D917C91519746875787608B718B529655
:101E20008C915297828B53964D915D916D917C91DF
:101E30005697438B548B658B768B57964D915D915E
:101E40006D917C915A97478B508F618F728F5B9603
:101E50008D919C915C97948F838F0895EF92FF9260
:101E60000F931F93CF93DF93EC017B018A011B82B9
:101E70001A8288EE93E0A0E0B0E08C839D83AE836D
:101E8000BF838FE091E0998388838DE190E00E9489
:101E9000C8149A8F898F009779F02DE1F701DC0142
:101EA00001900D922A95E1F74CE050E0B801CE0187
:101EB0000C960E940716188EDF91CF911F910F91FB
:101EC000FF90EF9008950F931F93CF93DF938C01B2
:101ED000C0E0D0E0F801EC0FFD1F6491662371F0C3
:101EE000E0916E03F0916F030190F081E02D8EE69A
:101EF00093E00995892B11F02196ECCFCE01DF916B
:101F0000CF911F910F91089590E0FC01EA5FFE4F81
:101F10002491FC01EE50FF4F8491882399F090E0CA
:101F2000880F991FFC01E851FF4FA591B491FC0166
:101F3000E252FF4F859194918FB7F894EC91E22B88
:101F4000EC938FBF0895CF93DF930E94630FEC0152
:101F50006BE471E08EE693E00E94F3018C0F9D1F0D
:101F6000DF91CF9108958F929F92AF92BF92CF92BF
:101F7000DF92EF92FF92CF93DF93C82F8EE094E031
:101F800090936D0380936C03CC2369F1C53010F0FE
:101F900080E00DC140E060E070E0CB010E942C05C4
:101FA0008823B1F320E1C29FC0011124845A9E4FBF
:101FB000FC01E254FE4F20812F7751F73C9640817F
:101FC000518162817381443651056105710500F3C9
:101FD0003497C080D180E280F380C114D104E10441
:101FE000F10421F4D5CFC12CD12C760140E0C701FA
:101FF000B6010E942C05882359F2809177019091B7
:1020000078018115924021F6A0917C01AA2309F460
:10201000BFCF60917A0170917B016115710509F460
:10202000B7CF20917901222309F4B2CFA0932C04D9
:1020300020931E0480E030E0E1E0F0E0C82FAF0123
:10204000082E02C0440F551F0A94E2F724173507E3
:1020500041F0982F8F5F983089F789E080932704AB
:1020600097CF80932704209182013091830121151D
:10207000310519F040E050E008C020919001309106
:102080009101409192015091930120931F0430934C
:102090002004409321045093220446015701860EE8
:1020A000971EA11CB11C80922D0490922E04A09228
:1020B0002F04B0923004E0917D01F0917E01F09305
:1020C0003304E0933204B0E00E94A814860E971EF9
:1020D000A81EB91E8092340490923504A092360452
:1020E000B092370485E0EE0FFF1F8A95E1F7E150CB
:1020F000FE4FEF2FFF27E6958E0E9F1EA11CB11CF1
:102100008092280490922904A0922A04B0922B0471
:1021100020917F01309180012115310521F0A90125
:1021200060E070E008C040918C0150918D01609199
:102130008E0170918F01D701C60188199909AA09EA
:10214000BB09840F951FA61FB71F04C0B695A7959E
:1021500097958795CA95D2F780932304909324048A
:10216000A0932504B0932604853F2FE09207A10594
:10217000B10510F48CE018C0853F9F4FA105B10553
:1021800010F480E111C08091980190919901A09183
:102190009A01B0919B018093340490933504A093ED
:1021A0003604B093370480E28093310481E0DF91FC
:1021B000CF91FF90EF90DF90CF90BF90AF909F9026
:1021C0008F9008954F925F926F927F928F929F921D
:1021D000AF92BF92CF92DF92EF92FF920F931F9335
:1021E000CF93DF93CDB7DEB7A1970FB6F894DEBFDC
:1021F0000FBECDBF8C016B01770FEE08FF08F7FE15
:102200002FC0DC01ED91FC910190F081E02D6DE299
:1022100009955C0122273327A9012C193D094E0994
:102220005F0919A2FE01B1967F019AE0492E512C57
:10223000612C712CCA01B901A30192010E9486147C
:10224000605DD7016E937D01211531054105510572
:1022500089F7BD01C8010E94F301A80EB91E1FC075
:10226000A701960119A2FE01B1967F018AE0882E8E
:10227000912CA12CB12CCA01B901A50194010E9495
:102280008614605DD7016E937D01211531054105EE
:10229000510589F7BD01C8010E94F3015C016BE49F
:1022A00071E0C8010E94F3018A0D9B1DA1960FB633
:1022B000F894DEBF0FBECDBFDF91CF911F910F917C
:1022C000FF90EF90DF90CF90BF90AF909F908F9056
:1022D0007F906F905F904F900895EEE6F3E0138249
:1022E000128288EE93E0A0E0B0E084839583A68319
:1022F000B7838FE191E09183808385EC90E09587AF
:10230000848784EC90E09787868780EC90E0918BBF
:10231000808B81EC90E0938B828B82EC90E0958BAC
:10232000848B86EC90E0978B868B118E128E138EA9
:10233000148EEBE0F4E080E580831182EEE0F4E0BF
:10234000158216821186138682E090E0A0E0B0E04C
:1023500084879587A687B78713A215A614A68FE34F
:1023600091E093A782A717A60895CF93DF93CDB7E7
:10237000DEB7C257D1090FB6F894DEBF0FBECDBF8E
:10238000789484B5826084BD84B5816084BD85B550
:10239000826085BD85B5816085BD80916E0081605C
:1023A00080936E0010928100809181008260809302
:1023B0008100809181008160809381008091800004
:1023C0008160809380008091B10084608093B1002F
:1023D0008091B00081608093B00080917A00846029
:1023E00080937A0080917A00826080937A00809155
:1023F0007A00816080937A0080917A00806880936F
:102400007A001092C100E0917E03F0917F0382E098
:102410008083E0917A03F0917B031082E0917C034A
:10242000F0917D038FEC808310928603E09182030C
:10243000F091830386E08083E0918003F091810333
:10244000808180618083E0918003F09181038081AD
:1024500088608083E0918003F091810380818068AF
:102460008083E0918003F091810380818F7D808360
:102470008CEA90E00E94630F8AE00E94840F109221
:10248000190410921704109214041092130484E09B
:10249000809312040E94D1028B01809112040E9449
:1024A000840F61E0809112040E946002FFB6F894EC
:1024B00080910D04811124C0ECEFF0E08491E0E103
:1024C000F1E09491E82FF0E0EE0FFF1FE851FF4F8D
:1024D000A591B491EC91E92321F461E08AE00E9496
:1024E00060028AE00E94840F8CB580618CBD8CB53F
:1024F00080648CBD8DE00E94840F8BE00E94840F6D
:1025000080910D048F5F80930D04FFBE82E5809360
:102510000B0410920C0480910B0490910C040E9407
:1025200077036AE0F62E8FEF0E943803FA94F110D9
:10253000FACF8EE094E00E947A0320E030E0A90117
:1025400060E08EE094E00E949003F82E80931804DF
:1025500081E0F81649F00E94D102601B710B613DC9
:10256000774058F381E056C02AEA31E040E050E07D
:1025700068E08EE094E00E94900382FF03C0F09236
:10258000190410C054E0F52E0E943F0380931804F4
:10259000FA94F110F9CF8A3A11F082E03BC082E060
:1025A0008093190480911904823021F0C12CD12C20
:1025B000760105C0C12CD12CE12C40E4F42E20E0A2
:1025C00030E0A90167E38EE094E00E949003A70148
:1025D000960169E28EE094E00E94900380931804D3
:1025E000882349F00E94D102601B710B613D774046
:1025F00030F388E00FC080911904823001F520E0AB
:1026000030E0A9016AE38EE094E00E949003882301
:1026100041F086E0809313048EE094E00E942D0345
:10262000A1C00E943F03807C803C19F483E080932A
:1026300019040E943F030E943F030E943F038EE063
:1026400094E00E942D0380E580930B0410920C040B
:1026500081E00E94B30F882329F080913D048823F4
:1026600041F080C080E00E94B30F882309F47AC053
:10267000F4CF80913104803109F582E080933D04EC
:1026800010924F0410925004109251041092520470
:102690008091320490913304A0E0B0E035E0880FDF
:1026A000991FAA1FBB1F3A95D1F780934B049093B3
:1026B0004C04A0934D04B0934E041EC0803209F028
:1026C00051C083E080933D0440913404509135041F
:1026D000609136047091370440934F045093500436
:1026E00060935104709352042BE434E08AE194E047
:1026F0000E9499068823B1F18AE194E090935404F2
:102700008093530481E080933C0410923E04109225
:102710003F0410924004109241041092420410921F
:1027200043041092440410924504109246041092FF
:102730004704109248041092490410924A048CE80D
:1027400090E00E94A30F86EE91E090936B0180933E
:102750006A0198EE492E93E0592E612C712C20E4E9
:10276000322E8DC080E990E00E94A30FFFCF8250EF
:1027700023E14EE451E0823008F09BC068E374E04E
:10278000CE014E960E94370B8111A1C06C961FAEF0
:102790001EAE6C97A0964CAE5DAE6EAE7FAEA097AF
:1027A0008FE091E06A969FAF8EAF6A97E3961FAE77
:1027B0001EAEE397A5961FAEA597E396EEADFFADCF
:1027C000E397309709F49DC08581882309F499C067
:1027D00030927C0080917A00806480937A008091AE
:1027E0007A0086FDFCCF009178008091790010E09E
:1027F000182BB801CE01885A9F4F0E94E210E39631
:102800008EAD9FADE397009761F00E94FB0CE396BD
:102810008EAD9FADE3970E945D15E3961FAE1EAE91
:10282000E397B8018EE693E00E94E2100E94AC02AA
:102830004B015C0188EEC82E83E0D82EE12CF12CF0
:102840000E94AC02DC01CB0188199909AA09BB09D5
:10285000883E9340A105B10558F091E0C91AD1080E
:10286000E108F10828EE820E23E0921EA11CB11CA3
:10287000C114D104E104F10419F70E94A50168E331
:1028800074E0CE0101960E94DD0EBE016F5F7F4FA6
:10289000CE01CB960E94DD0E19A218A28FE391E023
:1028A0009F8F8E8F1BA221968FAD219781115FCFB5
:1028B0006DCFBE01655C7F4FCE014E960E94370BF7
:1028C000882309F463CFCE01CB960E94FB0C49A963
:1028D0005AA96BA97CA9CE014E960E940207BE019F
:1028E000625E7F4FCE0101960E94DD0E4EE451E004
:1028F000BE016F5F7F4FCE01885A9F4F0E942E0FFF
:102900005CCF84EC90E00E94A30F90CFA1E21A2E3E
:10291000AA1BBB1BFD010DC0AA1FBB1FEE1FFF1F83
:10292000A217B307E407F50720F0A21BB30BE40BD3
:10293000F50B661F771F881F991F1A9469F760951A
:102940007095809590959B01AC01BD01CF010895D4
:102950000E94B914A59F900DB49F900DA49F800D67
:10296000911D11240895EE0FFF1F0590F491E02DA5
:102970000994A29FB001B39FC001A39F700D811D58
:102980001124911DB29F700D811D1124911D089578
:10299000CF93DF938230910510F482E090E0E091D4
:1029A0005904F0915A0420E030E0C0E0D0E03097C4
:1029B00011F14081518148175907C0F04817590754
:1029C00061F482819381209719F09B838A832BC0C5
:1029D00090935A048093590426C02115310519F0AB
:1029E0004217530718F49A01BE01DF01EF0102807C
:1029F000F381E02DDCCF2115310509F1281B390BBE
:102A00002430310590F412968D919C9113976115A5
:102A1000710521F0FB019383828304C090935A04D3
:102A200080935904FD01329644C0FD01E20FF31F6B
:102A300081939193225031092D933C933AC0209178
:102A4000570430915804232B41F420910601309112
:102A500007013093580420935704209104013091CA
:102A600005012115310541F42DB73EB7409108010C
:102A700050910901241B350BE0915704F091580443
:102A8000E217F307A0F42E1B3F0B2817390778F045
:102A9000AC014E5F5F4F2417350748F04E0F5F1FA4
:102AA00050935804409357048193919302C0E0E0FF
:102AB000F0E0CF01DF91CF9108950F931F93CF9353
:102AC000DF93009709F48CC0FC01329713821282C5
:102AD0000091590410915A040115110581F42081C7
:102AE0003181820F931F2091570430915804281789
:102AF000390779F5F0935804E093570471C0D80171
:102B000040E050E0AE17BF0750F412962D913C9173
:102B10001397AD012115310509F1D901F3CF9D01BD
:102B2000DA013383228360817181860F971F8217B8
:102B3000930769F4EC0128813981260F371F2E5F36
:102B40003F4F318320838A819B8193838283452BEE
:102B500029F4F0935A04E093590442C01396FC936D
:102B6000EE931297ED01499159919E01240F351F63
:102B7000E217F30771F480819181840F951F02960B
:102B800011969C938E938281938113969C938E933E
:102B90001297E0E0F0E0D80112968D919C91139786
:102BA000009719F0F8018C01F6CF8D919C91980156
:102BB0002E5F3F4F820F931F20915704309158048E
:102BC0002817390769F4309729F410925A041092A3
:102BD000590402C0138212821093580400935704C0
:102BE000DF91CF911F910F91089581E090E0F894CB
:102BF0000C941616FB01DC0104C08D910190801924
:102C000021F441505040C8F7881B990B0895FB01EF
:102C1000DC014150504048F001900D920020C9F76E
:102C200001C01D9241505040E0F70895F894FFCF45
:102C3000FFFFFFFF00005B0480000000000000D0E9
:102C400001C10EAF01A509AF09070D000000003C4E
:102C500001B8000501E300F700830100000000F166
:102C600001B800F101F101F101F10100000000B033
:102C70000EB80000000000F101B8000D0A00646108
:0A2C800074616C6F672E74787400A5
:107E0000112484B714BE81FFF0D085E080938100F7
:107E100082E08093C00088E18093C10086E0809377
:107E2000C20080E18093C4008EE0C9D0259A86E02C
:107E300020E33CEF91E0309385002093840096BBD3
:107E4000B09BFECF1D9AA8958150A9F7CC24DD24C4
:107E500088248394B5E0AB2EA1E19A2EF3E0BF2EE7
:107E6000A2D0813461F49FD0082FAFD0023811F036
:107E7000013811F484E001C083E08DD089C08234E0
:107E800011F484E103C0853419F485E0A6D080C0E4
:107E9000853579F488D0E82EFF2485D0082F10E0AE
:107EA000102F00270E291F29000F111F8ED06801E7
:107EB0006FC0863521F484E090D080E0DECF843638
:107EC00009F040C070D06FD0082F6DD080E0C81688
:107ED00080E7D80618F4F601B7BEE895C0E0D1E017
:107EE00062D089930C17E1F7F0E0CF16F0E7DF06D8
:107EF00018F0F601B7BEE89568D007B600FCFDCFD4
:107F0000A601A0E0B1E02C9130E011968C91119780
:107F100090E0982F8827822B932B1296FA010C0160
:107F200087BEE89511244E5F5F4FF1E0A038BF0790
:107F300051F7F601A7BEE89507B600FCFDCF97BE46
:107F4000E89526C08437B1F42ED02DD0F82E2BD052
:107F50003CD0F601EF2C8F010F5F1F4F84911BD097
:107F6000EA94F801C1F70894C11CD11CFA94CF0C13
:107F7000D11C0EC0853739F428D08EE10CD085E9AC
:107F80000AD08FE07ACF813511F488E018D01DD067
:107F900080E101D065CF982F8091C00085FFFCCF94
:107FA0009093C60008958091C00087FFFCCF809118
:107FB000C00084FD01C0A8958091C6000895E0E648
:107FC000F0E098E1908380830895EDDF803219F02E
:107FD00088E0F5DFFFCF84E1DECF1F93182FE3DFCA
:107FE0001150E9F7F2DF1F91089580E0E8DFEE27F6
:047FF000FF270994CA
:027FFE00040479
:0400000300007E007B
:00000001FF
