:100000000C945D000C9485000C9485000C94850084
:100010000C9485000C9485000C9485000C9485004C
:100020000C9485000C9485000C9485000C9485003C
:100030000C9485000C9485000C9485000C9485002C
:100040000C9438020C9485000C9485000C94850067
:100050000C9485000C9485000C9485000C9485000C
:100060000C9485000C94850000000008000201003B
:100070000003040700000000000000000000000072
:10008000250028002B0000000000240027002A0083
:10009000040404040404040402020202020203032E
:1000A0000303030301020408102040800102040836
:1000B00010200102040810208D0311241FBECFEF71
:1000C000D8E0DEBFCDBF12E0A0E0B1E0EEECF7E09B
:1000D00002C005900D92A030B107D9F722E0A0E050
:1000E000B2E001C01D92AC31B207E1F710E0CDE5FE
:1000F000D0E004C02197FE010E94DF03CC35D10778
:10010000C9F70E9482020C94E5030C94000090E071
:10011000FC01EC55FF4F2491FC01E057FF4F849107
:10012000882399F090E0880F991FFC01EA57FF4F50
:10013000A591B491FC01E458FF4F859194918FB73C
:10014000F894EC91E22BEC938FBF089590E0FC01C2
:10015000E859FF4F3491FC01EC55FF4F2491FC010D
:10016000E057FF4FE491EE2309F43BC0332339F10C
:10017000333091F038F43130A9F0323001F584B5E4
:100180008F7D12C0373091F03830A1F03430B9F49F
:10019000809180008F7D03C0809180008F77809355
:1001A00080000DC084B58F7784BD09C08091B000F8
:1001B0008F7703C08091B0008F7D8093B000F0E016
:1001C000EE0FFF1FE458FF4FA591B4918FB7F8943D
:1001D000EC91611103C020952E2301C02E2B2C938E
:1001E0008FBF08953FB7F89480910702909108025D
:1001F000A0910902B0910A0226B5A89B05C02F3F25
:1002000019F00196A11DB11D3FBFBA2FA92F982F3C
:100210008827820F911DA11DB11DBC01CD0142E0B7
:10022000660F771F881F991F4A95D1F708958F92FF
:100230009F92AF92BF92CF92DF92EF92FF926B01AB
:100240007C010E94F2004B015C01C114D104E10465
:10025000F104F1F00E94F200DC01CB018819990948
:10026000AA09BB09883E9340A105B10570F321E0BE
:10027000C21AD108E108F10888EE880E83E0981EC2
:10028000A11CB11CC114D104E104F10419F7DDCFA4
:10029000FF90EF90DF90CF90BF90AF909F908F90A6
:1002A0000895EF92FF921F93CF93DF931F92CDB7E4
:1002B000DEB77C01162F60E0FC01808149830E943B
:1002C000A60060E0F70181810E94A6001BB961E0F1
:1002D000F70180810E94A60060E0F70180810E9402
:1002E000A60061E0F70181810E94A60049814BB917
:1002F00061E0F70180810F90DF91CF911F91FF9016
:10030000EF900C94A6000F931F93CF939C01AB0129
:100310005F70220F331FF901E55FFD4F8F010D5F05
:100320001F4F54834383C82FCC0F6C2F8BE092E078
:100330000E945101F801418161E06C0F8BE092E075
:10034000CF911F910F910C945101CF93DF93EC014A
:1003500040E060E00E94510140E061E0CE010E9477
:10036000510140E062E0CE010E94510140E063E0B3
:10037000CE010E94510140E064E0CE010E94510193
:1003800040E065E0CE010E94510140E066E0CE0110
:100390000E94510140E067E0CE010E94510140E01F
:1003A00068E0CE010E94510140E069E0CE010E9468
:1003B000510140E06AE0CE010E94510140E06BE053
:1003C000CE010E94510140E06CE0CE010E9451013B
:1003D00040E06DE0CE010E9451011C821B821B8611
:1003E0001E821D821C8618861F821D868FE38A87C7
:1003F0001F861E86188ADF91CF9108950F931F9351
:10040000CF93DF938C01EB010297E0F489E08093B6
:100410001B0249E06DE08BE092E00E94510186E40E
:1004200090E190931A028093190246E46BE08BE00E
:1004300092E00E94510140911A026CE08BE092E040
:100440000E945101CC0FDD1FC050DF4F2881398140
:1004500040E050E068E478EE81E090E00E949E0386
:10046000B901C801DF91CF911F910F910C948301C5
:100470001F920F920FB60F9211242F933F938F93D9
:100480009F93AF93BF938091030290910402A09138
:100490000502B09106023091020223E0230F2D37AE
:1004A00020F40196A11DB11D05C026E8230F029678
:1004B000A11DB11D209302028093030290930402B8
:1004C000A0930502B0930602809107029091080262
:1004D000A0910902B0910A020196A11DB11D80935D
:1004E000070290930802A0930902B0930A02BF91F9
:1004F000AF919F918F913F912F910F900FBE0F90D1
:100500001F901895789484B5826084BD84B581600D
:1005100084BD85B5826085BD85B5816085BD8091CE
:100520006E00816080936E00109281008091810046
:10053000826080938100809181008160809381003E
:10054000809180008160809380008091B100846000
:100550008093B1008091B00081608093B000809161
:100560007A00846080937A0080917A008260809320
:100570007A0080917A00816080937A0080917A007D
:10058000806880937A001092C1008FEF8AB988E06A
:100590000E94870089E00E9487008AE00E9487000D
:1005A0008BE092E00E94A50161E080910B020E9425
:1005B000A60060E080910C020E94A60060E080919D
:1005C0000D020E94A6006AE070E080E090E00E94C8
:1005D000170161E080910D020E94A6008CE38093D8
:1005E00015024CE367E08BE092E00E945101CFE0FE
:1005F000C09316024FE068E08BE092E00E94510148
:1006000060E070E080E090E00E948301C0931702F8
:100610004FE069E08BE092E00E94510160E070E001
:1006200081E090E00E9483016BE370E080E090E065
:100630000E9483016BE370E081E090E00E948301FF
:1006400064E670E080E090E00E94170167E770E0E8
:1006500080E090E00E94830167E770E081E090E035
:100660000E94830164E670E080E090E00E94170140
:1006700060E070E080E090E00E94830160E070E064
:1006800081E090E00E9483016CE271E080E090E004
:100690000E941701C0E0D0E06CE470E080E090E0E0
:1006A0000E94FE0160E470E081E090E00E94FE01A3
:1006B0006BE370E082E090E00E94FE0163E370E093
:1006C00080E090E00E94170160E070E080E090E040
:1006D0000E94FE0167E470E080E090E00E94FE016D
:1006E0006CE770E080E090E00E94170160E070E04D
:1006F00080E090E00E94FE016CE470E080E090E019
:100700000E94FE016CE770E080E090E00E9417011B
:10071000209711F20E940000BFCF88E592E09093ED
:10072000010280930002EBE0F2E088E0808389E040
:1007300081838AE08283CF010C94A501052E97FB6B
:100740001EF400940E94B50357FD07D00E94BD031C
:1007500007FC03D04EF40C94B503509540953095AA
:1007600021953F4F4F4F5F4F08959095809570951D
:1007700061957F4F8F4F9F4F0895A1E21A2EAA1BBC
:10078000BB1BFD010DC0AA1FBB1FEE1FFF1FA21741
:10079000B307E407F50720F0A21BB30BE40BF50B3E
:1007A000661F771F881F991F1A9469F760957095C7
:1007B000809590959B01AC01BD01CF010895EE0F8E
:0E07C000FF1F0590F491E02D0994F894FFCFEF
:1007CE000000090009000A000A000B000C000C00D2
:1007DE000D000E000F000F0010001100120013008C
:1007EE0015001600170019001A001C001D001F002E
:1007FE00210023002500270029002C002E003100A7
:10080E00340037003A003E004100450049004E00DA
:10081E00520057005D00620068006E0075007C009B
:10082E0083008B0093009C00A500AF00B900C400AC
:10083E00D000DC00E900F7000601150126013701A2
:10084E004A015D01720188019F01B801D201EE01DA
:10085E000B022A024B026E029302BB02E402100349
:10086E003F037003A403DC03170455049704DD044F
:10087E0027057505C80520067D06E0064907B80759
:10088E002D08AA082D09B9094D0AEA0A900B400C49
:10089E00FA0CC00D910E6F0F5A1053115B1272139A
:1008AE009A14D31520178018F519801B231DDE1EF0
:1008BE00B420A622B524E4263429A72B402E0031DD
:00000001FF
